{
  "_format": "hh-sol-artifact-1",
  "contractName": "Casino",
  "sourceName": "src/backend/contracts/Casino.sol",
  "abi": [
    {
      "inputs": [
        {
          "internalType": "address",
          "name": "_dusdAddress",
          "type": "address"
        },
        {
          "internalType": "address",
          "name": "_rouletteAddress",
          "type": "address"
        },
        {
          "internalType": "address",
          "name": "_casTokenAddress",
          "type": "address"
        }
      ],
      "stateMutability": "nonpayable",
      "type": "constructor"
    },
    {
      "anonymous": false,
      "inputs": [
        {
          "indexed": true,
          "internalType": "address",
          "name": "previousOwner",
          "type": "address"
        },
        {
          "indexed": true,
          "internalType": "address",
          "name": "newOwner",
          "type": "address"
        }
      ],
      "name": "OwnershipTransferred",
      "type": "event"
    },
    {
      "inputs": [
        {
          "internalType": "address",
          "name": "_address",
          "type": "address"
        }
      ],
      "name": "authorizeAddressForTokenTransfer",
      "outputs": [],
      "stateMutability": "nonpayable",
      "type": "function"
    },
    {
      "inputs": [],
      "name": "balanceDUSD",
      "outputs": [
        {
          "internalType": "uint256",
          "name": "",
          "type": "uint256"
        }
      ],
      "stateMutability": "view",
      "type": "function"
    },
    {
      "inputs": [
        {
          "internalType": "uint256",
          "name": "dusdAmountInWei",
          "type": "uint256"
        }
      ],
      "name": "buyCASTokens",
      "outputs": [],
      "stateMutability": "nonpayable",
      "type": "function"
    },
    {
      "inputs": [],
      "name": "casToken",
      "outputs": [
        {
          "internalType": "contract MintableToken",
          "name": "",
          "type": "address"
        }
      ],
      "stateMutability": "view",
      "type": "function"
    },
    {
      "inputs": [],
      "name": "dusdToken",
      "outputs": [
        {
          "internalType": "contract IDUSD",
          "name": "",
          "type": "address"
        }
      ],
      "stateMutability": "view",
      "type": "function"
    },
    {
      "inputs": [],
      "name": "enabled",
      "outputs": [
        {
          "internalType": "bool",
          "name": "",
          "type": "bool"
        }
      ],
      "stateMutability": "view",
      "type": "function"
    },
    {
      "inputs": [],
      "name": "getAdress",
      "outputs": [
        {
          "internalType": "address",
          "name": "",
          "type": "address"
        }
      ],
      "stateMutability": "view",
      "type": "function"
    },
    {
      "inputs": [],
      "name": "owner",
      "outputs": [
        {
          "internalType": "address",
          "name": "",
          "type": "address"
        }
      ],
      "stateMutability": "view",
      "type": "function"
    },
    {
      "inputs": [],
      "name": "rate",
      "outputs": [
        {
          "internalType": "uint256",
          "name": "",
          "type": "uint256"
        }
      ],
      "stateMutability": "view",
      "type": "function"
    },
    {
      "inputs": [],
      "name": "renounceOwnership",
      "outputs": [],
      "stateMutability": "nonpayable",
      "type": "function"
    },
    {
      "inputs": [],
      "name": "rouletteGame",
      "outputs": [
        {
          "internalType": "contract Roulette",
          "name": "",
          "type": "address"
        }
      ],
      "stateMutability": "view",
      "type": "function"
    },
    {
      "inputs": [
        {
          "internalType": "bool",
          "name": "_enabled",
          "type": "bool"
        }
      ],
      "name": "setEnabled",
      "outputs": [],
      "stateMutability": "nonpayable",
      "type": "function"
    },
    {
      "inputs": [
        {
          "internalType": "address",
          "name": "_rouletteAddress",
          "type": "address"
        }
      ],
      "name": "setRouletteAddress",
      "outputs": [],
      "stateMutability": "nonpayable",
      "type": "function"
    },
    {
      "inputs": [
        {
          "internalType": "address",
          "name": "_of",
          "type": "address"
        }
      ],
      "name": "tokenBalance",
      "outputs": [
        {
          "internalType": "uint256",
          "name": "",
          "type": "uint256"
        }
      ],
      "stateMutability": "view",
      "type": "function"
    },
    {
      "inputs": [
        {
          "internalType": "address",
          "name": "recipient",
          "type": "address"
        },
        {
          "internalType": "uint256",
          "name": "amount",
          "type": "uint256"
        }
      ],
      "name": "transferCASToAddress",
      "outputs": [],
      "stateMutability": "nonpayable",
      "type": "function"
    },
    {
      "inputs": [
        {
          "internalType": "address",
          "name": "newOwner",
          "type": "address"
        }
      ],
      "name": "transferCASTokenOwnership",
      "outputs": [],
      "stateMutability": "nonpayable",
      "type": "function"
    },
    {
      "inputs": [
        {
          "internalType": "address",
          "name": "recipient",
          "type": "address"
        },
        {
          "internalType": "uint256",
          "name": "amount",
          "type": "uint256"
        }
      ],
      "name": "transferDUSDToAddress",
      "outputs": [],
      "stateMutability": "nonpayable",
      "type": "function"
    },
    {
      "inputs": [
        {
          "internalType": "address",
          "name": "newOwner",
          "type": "address"
        }
      ],
      "name": "transferOwnership",
      "outputs": [],
      "stateMutability": "nonpayable",
      "type": "function"
    },
    {
      "inputs": [
        {
          "internalType": "uint256",
          "name": "casAmount",
          "type": "uint256"
        }
      ],
      "name": "withdrawCasTokens",
      "outputs": [],
      "stateMutability": "nonpayable",
      "type": "function"
    },
    {
      "inputs": [
        {
          "internalType": "uint256",
          "name": "_numDUSD",
          "type": "uint256"
        }
      ],
      "name": "withdrawDUSD",
      "outputs": [],
      "stateMutability": "nonpayable",
      "type": "function"
    }
  ],
  "bytecode": "0x60806040526064600555600160065f6101000a81548160ff0219169083151502179055503480156200002f575f80fd5b506040516200480038038062004800833981810160405281019062000055919062000469565b62000075620000696200032e60201b60201c565b6200033560201b60201c565b600180819055508260035f6101000a81548173ffffffffffffffffffffffffffffffffffffffff021916908373ffffffffffffffffffffffffffffffffffffffff1602179055508160045f6101000a81548173ffffffffffffffffffffffffffffffffffffffff021916908373ffffffffffffffffffffffffffffffffffffffff1602179055505f73ffffffffffffffffffffffffffffffffffffffff168173ffffffffffffffffffffffffffffffffffffffff1603620002e4576040516200013e90620003f6565b62000149906200056e565b604051809103905ff08015801562000163573d5f803e3d5ffd5b5060025f6101000a81548173ffffffffffffffffffffffffffffffffffffffff021916908373ffffffffffffffffffffffffffffffffffffffff16021790555060025f9054906101000a900473ffffffffffffffffffffffffffffffffffffffff1673ffffffffffffffffffffffffffffffffffffffff166340c10f193060025f9054906101000a900473ffffffffffffffffffffffffffffffffffffffff1673ffffffffffffffffffffffffffffffffffffffff1663313ce5676040518163ffffffff1660e01b8152600401602060405180830381865afa1580156200024c573d5f803e3d5ffd5b505050506040513d601f19601f82011682018060405250810190620002729190620005de565b600a62000280919062000794565b620f4240620002909190620007e4565b6040518363ffffffff1660e01b8152600401620002af92919062000850565b5f604051808303815f87803b158015620002c7575f80fd5b505af1158015620002da573d5f803e3d5ffd5b5050505062000325565b8060025f6101000a81548173ffffffffffffffffffffffffffffffffffffffff021916908373ffffffffffffffffffffffffffffffffffffffff1602179055505b5050506200087b565b5f33905090565b5f805f9054906101000a900473ffffffffffffffffffffffffffffffffffffffff169050815f806101000a81548173ffffffffffffffffffffffffffffffffffffffff021916908373ffffffffffffffffffffffffffffffffffffffff1602179055508173ffffffffffffffffffffffffffffffffffffffff168173ffffffffffffffffffffffffffffffffffffffff167f8be0079c531659141344cd1fd0a4f28419497f9722a3daafe3b4186f6b6457e060405160405180910390a35050565b61218f806200267183390190565b5f80fd5b5f73ffffffffffffffffffffffffffffffffffffffff82169050919050565b5f620004338262000408565b9050919050565b620004458162000427565b811462000450575f80fd5b50565b5f8151905062000463816200043a565b92915050565b5f805f6060848603121562000483576200048262000404565b5b5f620004928682870162000453565b9350506020620004a58682870162000453565b9250506040620004b88682870162000453565b9150509250925092565b5f82825260208201905092915050565b7f436173696e6f00000000000000000000000000000000000000000000000000005f82015250565b5f62000508600683620004c2565b91506200051582620004d2565b602082019050919050565b7f43415300000000000000000000000000000000000000000000000000000000005f82015250565b5f62000556600383620004c2565b9150620005638262000520565b602082019050919050565b5f6040820190508181035f8301526200058781620004fa565b905081810360208301526200059c8162000548565b9050919050565b5f60ff82169050919050565b620005ba81620005a3565b8114620005c5575f80fd5b50565b5f81519050620005d881620005af565b92915050565b5f60208284031215620005f657620005f562000404565b5b5f6200060584828501620005c8565b91505092915050565b7f4e487b71000000000000000000000000000000000000000000000000000000005f52601160045260245ffd5b5f8160011c9050919050565b5f808291508390505b6001851115620006985780860481111562000670576200066f6200060e565b5b6001851615620006805780820291505b808102905062000690856200063b565b945062000650565b94509492505050565b5f82620006b2576001905062000784565b81620006c1575f905062000784565b8160018114620006da5760028114620006e5576200071b565b600191505062000784565b60ff841115620006fa57620006f96200060e565b5b8360020a9150848211156200071457620007136200060e565b5b5062000784565b5060208310610133831016604e8410600b8410161715620007555782820a9050838111156200074f576200074e6200060e565b5b62000784565b62000764848484600162000647565b925090508184048111156200077e576200077d6200060e565b5b81810290505b9392505050565b5f819050919050565b5f620007a0826200078b565b9150620007ad83620005a3565b9250620007dc7fffffffffffffffffffffffffffffffffffffffffffffffffffffffffffffffff8484620006a1565b905092915050565b5f620007f0826200078b565b9150620007fd836200078b565b92508282026200080d816200078b565b915082820484148315176200082757620008266200060e565b5b5092915050565b620008398162000427565b82525050565b6200084a816200078b565b82525050565b5f604082019050620008655f8301856200082e565b6200087460208301846200083f565b9392505050565b611de880620008895f395ff3fe608060405234801561000f575f80fd5b506004361061012a575f3560e01c80636e409a7a116100ab578063a051035e1161006f578063a051035e146102ce578063b5d4ef07146102ec578063d1c5de0114610308578063eedc966a14610324578063f2fde38b146103545761012a565b80636e409a7a146102505780636f081e161461026e578063715018a61461028a57806385491f14146102945780638da5cb5b146102b05761012a565b80632c4e722e116100f25780632c4e722e146101c0578063328d8f72146101de57806358d96cf8146101fa578063606929cc146102165780636b37d362146102325761012a565b80630934b7ff1461012e578063238dafe01461014c578063270e10dc1461016a578063288f202b146101885780632b6d8e08146101a4575b5f80fd5b610136610370565b6040516101439190611484565b60405180910390f35b610154610395565b60405161016191906114b7565b60405180910390f35b6101726103a7565b60405161017f91906114f0565b60405180910390f35b6101a2600480360381019061019d919061157b565b6103cc565b005b6101be60048036038101906101b991906115b9565b6104b3565b005b6101c86108c6565b6040516101d591906115f3565b60405180910390f35b6101f860048036038101906101f39190611636565b6108cc565b005b610214600480360381019061020f919061157b565b6108f0565b005b610230600480360381019061022b91906115b9565b6109d7565b005b61023a610d3b565b6040516102479190611670565b60405180910390f35b610258610d63565b60405161026591906116a9565b60405180910390f35b610288600480360381019061028391906116c2565b610d88565b005b610292610dd3565b005b6102ae60048036038101906102a991906116c2565b610de6565b005b6102b8610e78565b6040516102c59190611670565b60405180910390f35b6102d6610e9f565b6040516102e391906115f3565b60405180910390f35b610306600480360381019061030191906115b9565b610f3e565b005b610322600480360381019061031d91906116c2565b6110b7565b005b61033e600480360381019061033991906116c2565b611149565b60405161034b91906115f3565b60405180910390f35b61036e600480360381019061036991906116c2565b6111ea565b005b60045f9054906101000a900473ffffffffffffffffffffffffffffffffffffffff1681565b60065f9054906101000a900460ff1681565b60035f9054906101000a900473ffffffffffffffffffffffffffffffffffffffff1681565b6103d461126c565b60025f9054906101000a900473ffffffffffffffffffffffffffffffffffffffff1673ffffffffffffffffffffffffffffffffffffffff1663a9059cbb83836040518363ffffffff1660e01b81526004016104309291906116ed565b6020604051808303815f875af115801561044c573d5f803e3d5ffd5b505050506040513d601f19601f820116820180604052508101906104709190611728565b6104af576040517f08c379a00000000000000000000000000000000000000000000000000000000081526004016104a6906117ad565b60405180910390fd5b5050565b6104bb6112ea565b60065f9054906101000a900460ff16610509576040517f08c379a000000000000000000000000000000000000000000000000000000000815260040161050090611815565b60405180910390fd5b5f670de0b6b3a7640000600554836105219190611860565b61052b91906118ce565b90508160035f9054906101000a900473ffffffffffffffffffffffffffffffffffffffff1673ffffffffffffffffffffffffffffffffffffffff166370a08231336040518263ffffffff1660e01b81526004016105889190611670565b602060405180830381865afa1580156105a3573d5f803e3d5ffd5b505050506040513d601f19601f820116820180604052508101906105c79190611912565b1015610608576040517f08c379a00000000000000000000000000000000000000000000000000000000081526004016105ff90611987565b60405180910390fd5b60035f9054906101000a900473ffffffffffffffffffffffffffffffffffffffff1673ffffffffffffffffffffffffffffffffffffffff166323b872dd3330856040518463ffffffff1660e01b8152600401610666939291906119a5565b6020604051808303815f875af1158015610682573d5f803e3d5ffd5b505050506040513d601f19601f820116820180604052508101906106a69190611728565b6106e5576040517f08c379a00000000000000000000000000000000000000000000000000000000081526004016106dc90611a24565b60405180910390fd5b8060025f9054906101000a900473ffffffffffffffffffffffffffffffffffffffff1673ffffffffffffffffffffffffffffffffffffffff166370a08231306040518263ffffffff1660e01b81526004016107409190611670565b602060405180830381865afa15801561075b573d5f803e3d5ffd5b505050506040513d601f19601f8201168201806040525081019061077f9190611912565b101561081d5760025f9054906101000a900473ffffffffffffffffffffffffffffffffffffffff1673ffffffffffffffffffffffffffffffffffffffff166340c10f1930620186a0846107d29190611860565b6040518363ffffffff1660e01b81526004016107ef9291906116ed565b5f604051808303815f87803b158015610806575f80fd5b505af1158015610818573d5f803e3d5ffd5b505050505b60025f9054906101000a900473ffffffffffffffffffffffffffffffffffffffff1673ffffffffffffffffffffffffffffffffffffffff1663a9059cbb33836040518363ffffffff1660e01b81526004016108799291906116ed565b6020604051808303815f875af1158015610895573d5f803e3d5ffd5b505050506040513d601f19601f820116820180604052508101906108b99190611728565b50506108c3611339565b50565b60055481565b6108d461126c565b8060065f6101000a81548160ff02191690831515021790555050565b6108f861126c565b60035f9054906101000a900473ffffffffffffffffffffffffffffffffffffffff1673ffffffffffffffffffffffffffffffffffffffff1663a9059cbb83836040518363ffffffff1660e01b81526004016109549291906116ed565b6020604051808303815f875af1158015610970573d5f803e3d5ffd5b505050506040513d601f19601f820116820180604052508101906109949190611728565b6109d3576040517f08c379a00000000000000000000000000000000000000000000000000000000081526004016109ca90611a24565b60405180910390fd5b5050565b6109df6112ea565b60065f9054906101000a900460ff16610a2d576040517f08c379a0000000000000000000000000000000000000000000000000000000008152600401610a2490611815565b60405180910390fd5b5f600554670de0b6b3a764000083610a459190611860565b610a4f91906118ce565b90508160025f9054906101000a900473ffffffffffffffffffffffffffffffffffffffff1673ffffffffffffffffffffffffffffffffffffffff166370a08231336040518263ffffffff1660e01b8152600401610aac9190611670565b602060405180830381865afa158015610ac7573d5f803e3d5ffd5b505050506040513d601f19601f82011682018060405250810190610aeb9190611912565b1015610b2c576040517f08c379a0000000000000000000000000000000000000000000000000000000008152600401610b2390611a8c565b60405180910390fd5b60025f9054906101000a900473ffffffffffffffffffffffffffffffffffffffff1673ffffffffffffffffffffffffffffffffffffffff1663f83d17913330856040518463ffffffff1660e01b8152600401610b8a939291906119a5565b5f604051808303815f87803b158015610ba1575f80fd5b505af1158015610bb3573d5f803e3d5ffd5b505050508060035f9054906101000a900473ffffffffffffffffffffffffffffffffffffffff1673ffffffffffffffffffffffffffffffffffffffff166370a08231306040518263ffffffff1660e01b8152600401610c129190611670565b602060405180830381865afa158015610c2d573d5f803e3d5ffd5b505050506040513d601f19601f82011682018060405250810190610c519190611912565b1015610c92576040517f08c379a0000000000000000000000000000000000000000000000000000000008152600401610c8990611b1a565b60405180910390fd5b60035f9054906101000a900473ffffffffffffffffffffffffffffffffffffffff1673ffffffffffffffffffffffffffffffffffffffff1663a9059cbb33836040518363ffffffff1660e01b8152600401610cee9291906116ed565b6020604051808303815f875af1158015610d0a573d5f803e3d5ffd5b505050506040513d601f19601f82011682018060405250810190610d2e9190611728565b5050610d38611339565b50565b5f60025f9054906101000a900473ffffffffffffffffffffffffffffffffffffffff16905090565b60025f9054906101000a900473ffffffffffffffffffffffffffffffffffffffff1681565b610d9061126c565b8060045f6101000a81548173ffffffffffffffffffffffffffffffffffffffff021916908373ffffffffffffffffffffffffffffffffffffffff16021790555050565b610ddb61126c565b610de45f611342565b565b610dee61126c565b60025f9054906101000a900473ffffffffffffffffffffffffffffffffffffffff1673ffffffffffffffffffffffffffffffffffffffff16634a5db3b5826040518263ffffffff1660e01b8152600401610e489190611670565b5f604051808303815f87803b158015610e5f575f80fd5b505af1158015610e71573d5f803e3d5ffd5b5050505050565b5f805f9054906101000a900473ffffffffffffffffffffffffffffffffffffffff16905090565b5f60035f9054906101000a900473ffffffffffffffffffffffffffffffffffffffff1673ffffffffffffffffffffffffffffffffffffffff166370a08231306040518263ffffffff1660e01b8152600401610efa9190611670565b602060405180830381865afa158015610f15573d5f803e3d5ffd5b505050506040513d601f19601f82011682018060405250810190610f399190611912565b905090565b610f4661126c565b5f8111610f88576040517f08c379a0000000000000000000000000000000000000000000000000000000008152600401610f7f90611ba8565b60405180910390fd5b610f90610e9f565b811115610fd2576040517f08c379a0000000000000000000000000000000000000000000000000000000008152600401610fc990611c36565b60405180910390fd5b60035f9054906101000a900473ffffffffffffffffffffffffffffffffffffffff1673ffffffffffffffffffffffffffffffffffffffff1663a9059cbb611017610e78565b836040518363ffffffff1660e01b81526004016110359291906116ed565b6020604051808303815f875af1158015611051573d5f803e3d5ffd5b505050506040513d601f19601f820116820180604052508101906110759190611728565b6110b4576040517f08c379a00000000000000000000000000000000000000000000000000000000081526004016110ab90611a24565b60405180910390fd5b50565b6110bf61126c565b60025f9054906101000a900473ffffffffffffffffffffffffffffffffffffffff1673ffffffffffffffffffffffffffffffffffffffff1663f2fde38b826040518263ffffffff1660e01b81526004016111199190611670565b5f604051808303815f87803b158015611130575f80fd5b505af1158015611142573d5f803e3d5ffd5b5050505050565b5f60025f9054906101000a900473ffffffffffffffffffffffffffffffffffffffff1673ffffffffffffffffffffffffffffffffffffffff166370a08231836040518263ffffffff1660e01b81526004016111a49190611670565b602060405180830381865afa1580156111bf573d5f803e3d5ffd5b505050506040513d601f19601f820116820180604052508101906111e39190611912565b9050919050565b6111f261126c565b5f73ffffffffffffffffffffffffffffffffffffffff168173ffffffffffffffffffffffffffffffffffffffff1603611260576040517f08c379a000000000000000000000000000000000000000000000000000000000815260040161125790611cc4565b60405180910390fd5b61126981611342565b50565b611274611403565b73ffffffffffffffffffffffffffffffffffffffff16611292610e78565b73ffffffffffffffffffffffffffffffffffffffff16146112e8576040517f08c379a00000000000000000000000000000000000000000000000000000000081526004016112df90611d2c565b60405180910390fd5b565b60026001540361132f576040517f08c379a000000000000000000000000000000000000000000000000000000000815260040161132690611d94565b60405180910390fd5b6002600181905550565b60018081905550565b5f805f9054906101000a900473ffffffffffffffffffffffffffffffffffffffff169050815f806101000a81548173ffffffffffffffffffffffffffffffffffffffff021916908373ffffffffffffffffffffffffffffffffffffffff1602179055508173ffffffffffffffffffffffffffffffffffffffff168173ffffffffffffffffffffffffffffffffffffffff167f8be0079c531659141344cd1fd0a4f28419497f9722a3daafe3b4186f6b6457e060405160405180910390a35050565b5f33905090565b5f73ffffffffffffffffffffffffffffffffffffffff82169050919050565b5f819050919050565b5f61144c6114476114428461140a565b611429565b61140a565b9050919050565b5f61145d82611432565b9050919050565b5f61146e82611453565b9050919050565b61147e81611464565b82525050565b5f6020820190506114975f830184611475565b92915050565b5f8115159050919050565b6114b18161149d565b82525050565b5f6020820190506114ca5f8301846114a8565b92915050565b5f6114da82611453565b9050919050565b6114ea816114d0565b82525050565b5f6020820190506115035f8301846114e1565b92915050565b5f80fd5b5f6115178261140a565b9050919050565b6115278161150d565b8114611531575f80fd5b50565b5f813590506115428161151e565b92915050565b5f819050919050565b61155a81611548565b8114611564575f80fd5b50565b5f8135905061157581611551565b92915050565b5f806040838503121561159157611590611509565b5b5f61159e85828601611534565b92505060206115af85828601611567565b9150509250929050565b5f602082840312156115ce576115cd611509565b5b5f6115db84828501611567565b91505092915050565b6115ed81611548565b82525050565b5f6020820190506116065f8301846115e4565b92915050565b6116158161149d565b811461161f575f80fd5b50565b5f813590506116308161160c565b92915050565b5f6020828403121561164b5761164a611509565b5b5f61165884828501611622565b91505092915050565b61166a8161150d565b82525050565b5f6020820190506116835f830184611661565b92915050565b5f61169382611453565b9050919050565b6116a381611689565b82525050565b5f6020820190506116bc5f83018461169a565b92915050565b5f602082840312156116d7576116d6611509565b5b5f6116e484828501611534565b91505092915050565b5f6040820190506117005f830185611661565b61170d60208301846115e4565b9392505050565b5f815190506117228161160c565b92915050565b5f6020828403121561173d5761173c611509565b5b5f61174a84828501611714565b91505092915050565b5f82825260208201905092915050565b7f434153207472616e73666572206661696c6564000000000000000000000000005f82015250565b5f611797601383611753565b91506117a282611763565b602082019050919050565b5f6020820190508181035f8301526117c48161178b565b9050919050565b7f436f6e74726163742069732064697361626c65640000000000000000000000005f82015250565b5f6117ff601483611753565b915061180a826117cb565b602082019050919050565b5f6020820190508181035f83015261182c816117f3565b9050919050565b7f4e487b71000000000000000000000000000000000000000000000000000000005f52601160045260245ffd5b5f61186a82611548565b915061187583611548565b925082820261188381611548565b9150828204841483151761189a57611899611833565b5b5092915050565b7f4e487b71000000000000000000000000000000000000000000000000000000005f52601260045260245ffd5b5f6118d882611548565b91506118e383611548565b9250826118f3576118f26118a1565b5b828204905092915050565b5f8151905061190c81611551565b92915050565b5f6020828403121561192757611926611509565b5b5f611934848285016118fe565b91505092915050565b7f496e73756666696369656e7420445553442062616c616e6365000000000000005f82015250565b5f611971601983611753565b915061197c8261193d565b602082019050919050565b5f6020820190508181035f83015261199e81611965565b9050919050565b5f6060820190506119b85f830186611661565b6119c56020830185611661565b6119d260408301846115e4565b949350505050565b7f44555344207472616e73666572206661696c65640000000000000000000000005f82015250565b5f611a0e601483611753565b9150611a19826119da565b602082019050919050565b5f6020820190508181035f830152611a3b81611a02565b9050919050565b7f496e73756666696369656e74204341532062616c616e636500000000000000005f82015250565b5f611a76601883611753565b9150611a8182611a42565b602082019050919050565b5f6020820190508181035f830152611aa381611a6a565b9050919050565b7f496e73756666696369656e7420445553442062616c616e636520696e207468655f8201527f20436173696e6f20636f6e747261637400000000000000000000000000000000602082015250565b5f611b04603083611753565b9150611b0f82611aaa565b604082019050919050565b5f6020820190508181035f830152611b3181611af8565b9050919050565b7f5769746864726177616c20616d6f756e742073686f756c6420626520677265615f8201527f746572207468616e20302e000000000000000000000000000000000000000000602082015250565b5f611b92602b83611753565b9150611b9d82611b38565b604082019050919050565b5f6020820190508181035f830152611bbf81611b86565b9050919050565b7f496e73756666696369656e74204455534420696e2074686520636f6e747261635f8201527f742e000000000000000000000000000000000000000000000000000000000000602082015250565b5f611c20602283611753565b9150611c2b82611bc6565b604082019050919050565b5f6020820190508181035f830152611c4d81611c14565b9050919050565b7f4f776e61626c653a206e6577206f776e657220697320746865207a65726f20615f8201527f6464726573730000000000000000000000000000000000000000000000000000602082015250565b5f611cae602683611753565b9150611cb982611c54565b604082019050919050565b5f6020820190508181035f830152611cdb81611ca2565b9050919050565b7f4f776e61626c653a2063616c6c6572206973206e6f7420746865206f776e65725f82015250565b5f611d16602083611753565b9150611d2182611ce2565b602082019050919050565b5f6020820190508181035f830152611d4381611d0a565b9050919050565b7f5265656e7472616e637947756172643a207265656e7472616e742063616c6c005f82015250565b5f611d7e601f83611753565b9150611d8982611d4a565b602082019050919050565b5f6020820190508181035f830152611dab81611d72565b905091905056fea2646970667358221220964b171f2cf23a020925cbff5d373cacf9121d4b49048d6704a0b730ae16e3d164736f6c63430008140033608060405234801562000010575f80fd5b506040516200218f3803806200218f83398181016040528101906200003691906200032a565b81818160039081620000499190620005e4565b5080600490816200005b9190620005e4565b5050506200007e62000072620000db60201b60201c565b620000e260201b60201c565b600160065f3373ffffffffffffffffffffffffffffffffffffffff1673ffffffffffffffffffffffffffffffffffffffff1681526020019081526020015f205f6101000a81548160ff0219169083151502179055505050620006c8565b5f33905090565b5f60055f9054906101000a900473ffffffffffffffffffffffffffffffffffffffff1690508160055f6101000a81548173ffffffffffffffffffffffffffffffffffffffff021916908373ffffffffffffffffffffffffffffffffffffffff1602179055508173ffffffffffffffffffffffffffffffffffffffff168173ffffffffffffffffffffffffffffffffffffffff167f8be0079c531659141344cd1fd0a4f28419497f9722a3daafe3b4186f6b6457e060405160405180910390a35050565b5f604051905090565b5f80fd5b5f80fd5b5f80fd5b5f80fd5b5f601f19601f8301169050919050565b7f4e487b71000000000000000000000000000000000000000000000000000000005f52604160045260245ffd5b6200020682620001be565b810181811067ffffffffffffffff82111715620002285762000227620001ce565b5b80604052505050565b5f6200023c620001a5565b90506200024a8282620001fb565b919050565b5f67ffffffffffffffff8211156200026c576200026b620001ce565b5b6200027782620001be565b9050602081019050919050565b5f5b83811015620002a357808201518184015260208101905062000286565b5f8484015250505050565b5f620002c4620002be846200024f565b62000231565b905082815260208101848484011115620002e357620002e2620001ba565b5b620002f084828562000284565b509392505050565b5f82601f8301126200030f576200030e620001b6565b5b815162000321848260208601620002ae565b91505092915050565b5f8060408385031215620003435762000342620001ae565b5b5f83015167ffffffffffffffff811115620003635762000362620001b2565b5b6200037185828601620002f8565b925050602083015167ffffffffffffffff811115620003955762000394620001b2565b5b620003a385828601620002f8565b9150509250929050565b5f81519050919050565b7f4e487b71000000000000000000000000000000000000000000000000000000005f52602260045260245ffd5b5f6002820490506001821680620003fc57607f821691505b602082108103620004125762000411620003b7565b5b50919050565b5f819050815f5260205f209050919050565b5f6020601f8301049050919050565b5f82821b905092915050565b5f60088302620004767fffffffffffffffffffffffffffffffffffffffffffffffffffffffffffffffff8262000439565b62000482868362000439565b95508019841693508086168417925050509392505050565b5f819050919050565b5f819050919050565b5f620004cc620004c6620004c0846200049a565b620004a3565b6200049a565b9050919050565b5f819050919050565b620004e783620004ac565b620004ff620004f682620004d3565b84845462000445565b825550505050565b5f90565b6200051562000507565b62000522818484620004dc565b505050565b5b8181101562000549576200053d5f826200050b565b60018101905062000528565b5050565b601f8211156200059857620005628162000418565b6200056d846200042a565b810160208510156200057d578190505b620005956200058c856200042a565b83018262000527565b50505b505050565b5f82821c905092915050565b5f620005ba5f19846008026200059d565b1980831691505092915050565b5f620005d48383620005a9565b9150826002028217905092915050565b620005ef82620003ad565b67ffffffffffffffff8111156200060b576200060a620001ce565b5b620006178254620003e4565b620006248282856200054d565b5f60209050601f8311600181146200065a575f841562000645578287015190505b620006518582620005c7565b865550620006c0565b601f1984166200066a8662000418565b5f5b8281101562000693578489015182556001820191506020850194506020810190506200066c565b86831015620006b35784890151620006af601f891682620005a9565b8355505b6001600288020188555050505b505050505050565b611ab980620006d65f395ff3fe608060405234801561000f575f80fd5b506004361061011f575f3560e01c8063715018a6116100ab578063b48028e31161006f578063b48028e31461031b578063dd62ed3e14610337578063f19e207e14610367578063f2fde38b14610397578063f83d1791146103b35761011f565b8063715018a6146102755780638da5cb5b1461027f57806395d89b411461029d578063a457c2d7146102bb578063a9059cbb146102eb5761011f565b8063313ce567116100f2578063313ce567146101bf57806339509351146101dd57806340c10f191461020d5780634a5db3b51461022957806370a08231146102455761011f565b806306fdde0314610123578063095ea7b31461014157806318160ddd1461017157806323b872dd1461018f575b5f80fd5b61012b6103cf565b6040516101389190611157565b60405180910390f35b61015b60048036038101906101569190611208565b61045f565b6040516101689190611260565b60405180910390f35b610179610481565b6040516101869190611288565b60405180910390f35b6101a960048036038101906101a491906112a1565b61048a565b6040516101b69190611260565b60405180910390f35b6101c76104b8565b6040516101d4919061130c565b60405180910390f35b6101f760048036038101906101f29190611208565b6104bc565b6040516102049190611260565b60405180910390f35b61022760048036038101906102229190611208565b6104f2565b005b610243600480360381019061023e9190611325565b610508565b005b61025f600480360381019061025a9190611325565b610568565b60405161026c9190611288565b60405180910390f35b61027d6105ad565b005b6102876105c0565b604051610294919061135f565b60405180910390f35b6102a56105e8565b6040516102b29190611157565b60405180910390f35b6102d560048036038101906102d09190611208565b610678565b6040516102e29190611260565b60405180910390f35b61030560048036038101906103009190611208565b6106ed565b6040516103129190611260565b60405180910390f35b61033560048036038101906103309190611325565b61070f565b005b610351600480360381019061034c9190611378565b61076e565b60405161035e9190611288565b60405180910390f35b610381600480360381019061037c9190611325565b6107f0565b60405161038e9190611260565b60405180910390f35b6103b160048036038101906103ac9190611325565b61080d565b005b6103cd60048036038101906103c891906112a1565b61088f565b005b6060600380546103de906113e3565b80601f016020809104026020016040519081016040528092919081815260200182805461040a906113e3565b80156104555780601f1061042c57610100808354040283529160200191610455565b820191905f5260205f20905b81548152906001019060200180831161043857829003601f168201915b5050505050905090565b5f80610469610973565b905061047681858561097a565b600191505092915050565b5f600254905090565b5f80610494610973565b90506104a1858285610b3d565b6104ac858585610bc8565b60019150509392505050565b5f90565b5f806104c6610973565b90506104e78185856104d8858961076e565b6104e29190611440565b61097a565b600191505092915050565b6104fa610e34565b6105048282610eb2565b5050565b610510610e34565b600160065f8373ffffffffffffffffffffffffffffffffffffffff1673ffffffffffffffffffffffffffffffffffffffff1681526020019081526020015f205f6101000a81548160ff02191690831515021790555050565b5f805f8373ffffffffffffffffffffffffffffffffffffffff1673ffffffffffffffffffffffffffffffffffffffff1681526020019081526020015f20549050919050565b6105b5610e34565b6105be5f611000565b565b5f60055f9054906101000a900473ffffffffffffffffffffffffffffffffffffffff16905090565b6060600480546105f7906113e3565b80601f0160208091040260200160405190810160405280929190818152602001828054610623906113e3565b801561066e5780601f106106455761010080835404028352916020019161066e565b820191905f5260205f20905b81548152906001019060200180831161065157829003601f168201915b5050505050905090565b5f80610682610973565b90505f61068f828661076e565b9050838110156106d4576040517f08c379a00000000000000000000000000000000000000000000000000000000081526004016106cb906114e3565b60405180910390fd5b6106e1828686840361097a565b60019250505092915050565b5f806106f7610973565b9050610704818585610bc8565b600191505092915050565b610717610e34565b5f60065f8373ffffffffffffffffffffffffffffffffffffffff1673ffffffffffffffffffffffffffffffffffffffff1681526020019081526020015f205f6101000a81548160ff02191690831515021790555050565b5f60015f8473ffffffffffffffffffffffffffffffffffffffff1673ffffffffffffffffffffffffffffffffffffffff1681526020019081526020015f205f8373ffffffffffffffffffffffffffffffffffffffff1673ffffffffffffffffffffffffffffffffffffffff1681526020019081526020015f2054905092915050565b6006602052805f5260405f205f915054906101000a900460ff1681565b610815610e34565b5f73ffffffffffffffffffffffffffffffffffffffff168173ffffffffffffffffffffffffffffffffffffffff1603610883576040517f08c379a000000000000000000000000000000000000000000000000000000000815260040161087a90611571565b60405180910390fd5b61088c81611000565b50565b60065f3373ffffffffffffffffffffffffffffffffffffffff1673ffffffffffffffffffffffffffffffffffffffff1681526020019081526020015f205f9054906101000a900460ff16610918576040517f08c379a000000000000000000000000000000000000000000000000000000000815260040161090f906115d9565b60405180910390fd5b8061092284610568565b1015610963576040517f08c379a000000000000000000000000000000000000000000000000000000000815260040161095a90611667565b60405180910390fd5b61096e838383610bc8565b505050565b5f33905090565b5f73ffffffffffffffffffffffffffffffffffffffff168373ffffffffffffffffffffffffffffffffffffffff16036109e8576040517f08c379a00000000000000000000000000000000000000000000000000000000081526004016109df906116f5565b60405180910390fd5b5f73ffffffffffffffffffffffffffffffffffffffff168273ffffffffffffffffffffffffffffffffffffffff1603610a56576040517f08c379a0000000000000000000000000000000000000000000000000000000008152600401610a4d90611783565b60405180910390fd5b8060015f8573ffffffffffffffffffffffffffffffffffffffff1673ffffffffffffffffffffffffffffffffffffffff1681526020019081526020015f205f8473ffffffffffffffffffffffffffffffffffffffff1673ffffffffffffffffffffffffffffffffffffffff1681526020019081526020015f20819055508173ffffffffffffffffffffffffffffffffffffffff168373ffffffffffffffffffffffffffffffffffffffff167f8c5be1e5ebec7d5bd14f71427d1e84f3dd0314c0f7b2291e5b200ac8c7c3b92583604051610b309190611288565b60405180910390a3505050565b5f610b48848461076e565b90507fffffffffffffffffffffffffffffffffffffffffffffffffffffffffffffffff8114610bc25781811015610bb4576040517f08c379a0000000000000000000000000000000000000000000000000000000008152600401610bab906117eb565b60405180910390fd5b610bc1848484840361097a565b5b50505050565b5f73ffffffffffffffffffffffffffffffffffffffff168373ffffffffffffffffffffffffffffffffffffffff1603610c36576040517f08c379a0000000000000000000000000000000000000000000000000000000008152600401610c2d90611879565b60405180910390fd5b5f73ffffffffffffffffffffffffffffffffffffffff168273ffffffffffffffffffffffffffffffffffffffff1603610ca4576040517f08c379a0000000000000000000000000000000000000000000000000000000008152600401610c9b90611907565b60405180910390fd5b610caf8383836110c3565b5f805f8573ffffffffffffffffffffffffffffffffffffffff1673ffffffffffffffffffffffffffffffffffffffff1681526020019081526020015f2054905081811015610d32576040517f08c379a0000000000000000000000000000000000000000000000000000000008152600401610d2990611995565b60405180910390fd5b8181035f808673ffffffffffffffffffffffffffffffffffffffff1673ffffffffffffffffffffffffffffffffffffffff1681526020019081526020015f2081905550815f808573ffffffffffffffffffffffffffffffffffffffff1673ffffffffffffffffffffffffffffffffffffffff1681526020019081526020015f205f82825401925050819055508273ffffffffffffffffffffffffffffffffffffffff168473ffffffffffffffffffffffffffffffffffffffff167fddf252ad1be2c89b69c2b068fc378daa952ba7f163c4a11628f55a4df523b3ef84604051610e1b9190611288565b60405180910390a3610e2e8484846110c8565b50505050565b610e3c610973565b73ffffffffffffffffffffffffffffffffffffffff16610e5a6105c0565b73ffffffffffffffffffffffffffffffffffffffff1614610eb0576040517f08c379a0000000000000000000000000000000000000000000000000000000008152600401610ea7906119fd565b60405180910390fd5b565b5f73ffffffffffffffffffffffffffffffffffffffff168273ffffffffffffffffffffffffffffffffffffffff1603610f20576040517f08c379a0000000000000000000000000000000000000000000000000000000008152600401610f1790611a65565b60405180910390fd5b610f2b5f83836110c3565b8060025f828254610f3c9190611440565b92505081905550805f808473ffffffffffffffffffffffffffffffffffffffff1673ffffffffffffffffffffffffffffffffffffffff1681526020019081526020015f205f82825401925050819055508173ffffffffffffffffffffffffffffffffffffffff165f73ffffffffffffffffffffffffffffffffffffffff167fddf252ad1be2c89b69c2b068fc378daa952ba7f163c4a11628f55a4df523b3ef83604051610fe99190611288565b60405180910390a3610ffc5f83836110c8565b5050565b5f60055f9054906101000a900473ffffffffffffffffffffffffffffffffffffffff1690508160055f6101000a81548173ffffffffffffffffffffffffffffffffffffffff021916908373ffffffffffffffffffffffffffffffffffffffff1602179055508173ffffffffffffffffffffffffffffffffffffffff168173ffffffffffffffffffffffffffffffffffffffff167f8be0079c531659141344cd1fd0a4f28419497f9722a3daafe3b4186f6b6457e060405160405180910390a35050565b505050565b505050565b5f81519050919050565b5f82825260208201905092915050565b5f5b838110156111045780820151818401526020810190506110e9565b5f8484015250505050565b5f601f19601f8301169050919050565b5f611129826110cd565b61113381856110d7565b93506111438185602086016110e7565b61114c8161110f565b840191505092915050565b5f6020820190508181035f83015261116f818461111f565b905092915050565b5f80fd5b5f73ffffffffffffffffffffffffffffffffffffffff82169050919050565b5f6111a48261117b565b9050919050565b6111b48161119a565b81146111be575f80fd5b50565b5f813590506111cf816111ab565b92915050565b5f819050919050565b6111e7816111d5565b81146111f1575f80fd5b50565b5f81359050611202816111de565b92915050565b5f806040838503121561121e5761121d611177565b5b5f61122b858286016111c1565b925050602061123c858286016111f4565b9150509250929050565b5f8115159050919050565b61125a81611246565b82525050565b5f6020820190506112735f830184611251565b92915050565b611282816111d5565b82525050565b5f60208201905061129b5f830184611279565b92915050565b5f805f606084860312156112b8576112b7611177565b5b5f6112c5868287016111c1565b93505060206112d6868287016111c1565b92505060406112e7868287016111f4565b9150509250925092565b5f60ff82169050919050565b611306816112f1565b82525050565b5f60208201905061131f5f8301846112fd565b92915050565b5f6020828403121561133a57611339611177565b5b5f611347848285016111c1565b91505092915050565b6113598161119a565b82525050565b5f6020820190506113725f830184611350565b92915050565b5f806040838503121561138e5761138d611177565b5b5f61139b858286016111c1565b92505060206113ac858286016111c1565b9150509250929050565b7f4e487b71000000000000000000000000000000000000000000000000000000005f52602260045260245ffd5b5f60028204905060018216806113fa57607f821691505b60208210810361140d5761140c6113b6565b5b50919050565b7f4e487b71000000000000000000000000000000000000000000000000000000005f52601160045260245ffd5b5f61144a826111d5565b9150611455836111d5565b925082820190508082111561146d5761146c611413565b5b92915050565b7f45524332303a2064656372656173656420616c6c6f77616e63652062656c6f775f8201527f207a65726f000000000000000000000000000000000000000000000000000000602082015250565b5f6114cd6025836110d7565b91506114d882611473565b604082019050919050565b5f6020820190508181035f8301526114fa816114c1565b9050919050565b7f4f776e61626c653a206e6577206f776e657220697320746865207a65726f20615f8201527f6464726573730000000000000000000000000000000000000000000000000000602082015250565b5f61155b6026836110d7565b915061156682611501565b604082019050919050565b5f6020820190508181035f8301526115888161154f565b9050919050565b7f4e6f7420617574686f72697a65640000000000000000000000000000000000005f82015250565b5f6115c3600e836110d7565b91506115ce8261158f565b602082019050919050565b5f6020820190508181035f8301526115f0816115b7565b9050919050565b7f496e73756666696369656e742062616c616e636520696e2074686520736f75725f8201527f6365206164647265737300000000000000000000000000000000000000000000602082015250565b5f611651602a836110d7565b915061165c826115f7565b604082019050919050565b5f6020820190508181035f83015261167e81611645565b9050919050565b7f45524332303a20617070726f76652066726f6d20746865207a65726f206164645f8201527f7265737300000000000000000000000000000000000000000000000000000000602082015250565b5f6116df6024836110d7565b91506116ea82611685565b604082019050919050565b5f6020820190508181035f83015261170c816116d3565b9050919050565b7f45524332303a20617070726f766520746f20746865207a65726f2061646472655f8201527f7373000000000000000000000000000000000000000000000000000000000000602082015250565b5f61176d6022836110d7565b915061177882611713565b604082019050919050565b5f6020820190508181035f83015261179a81611761565b9050919050565b7f45524332303a20696e73756666696369656e7420616c6c6f77616e63650000005f82015250565b5f6117d5601d836110d7565b91506117e0826117a1565b602082019050919050565b5f6020820190508181035f830152611802816117c9565b9050919050565b7f45524332303a207472616e736665722066726f6d20746865207a65726f2061645f8201527f6472657373000000000000000000000000000000000000000000000000000000602082015250565b5f6118636025836110d7565b915061186e82611809565b604082019050919050565b5f6020820190508181035f83015261189081611857565b9050919050565b7f45524332303a207472616e7366657220746f20746865207a65726f20616464725f8201527f6573730000000000000000000000000000000000000000000000000000000000602082015250565b5f6118f16023836110d7565b91506118fc82611897565b604082019050919050565b5f6020820190508181035f83015261191e816118e5565b9050919050565b7f45524332303a207472616e7366657220616d6f756e74206578636565647320625f8201527f616c616e63650000000000000000000000000000000000000000000000000000602082015250565b5f61197f6026836110d7565b915061198a82611925565b604082019050919050565b5f6020820190508181035f8301526119ac81611973565b9050919050565b7f4f776e61626c653a2063616c6c6572206973206e6f7420746865206f776e65725f82015250565b5f6119e76020836110d7565b91506119f2826119b3565b602082019050919050565b5f6020820190508181035f830152611a14816119db565b9050919050565b7f45524332303a206d696e7420746f20746865207a65726f2061646472657373005f82015250565b5f611a4f601f836110d7565b9150611a5a82611a1b565b602082019050919050565b5f6020820190508181035f830152611a7c81611a43565b905091905056fea2646970667358221220f6e234ef32e9502cc18725e621b1d36343372f42f7fa50699c18146ef255039b64736f6c63430008140033",
  "linkReferences": {},
  "deployedLinkReferences": {}
}