{
  "_format": "hh-sol-artifact-1",
  "contractName": "Roulette",
  "sourceName": "src/backend/contracts/Roulette.sol",
  "abi": [
    {
      "inputs": [],
      "stateMutability": "nonpayable",
      "type": "constructor"
    },
    {
      "anonymous": false,
      "inputs": [
        {
          "indexed": true,
          "internalType": "address",
          "name": "player",
          "type": "address"
        },
        {
          "indexed": false,
          "internalType": "enum Roulette.Color",
          "name": "selectedColor",
          "type": "uint8"
        },
        {
          "indexed": false,
          "internalType": "uint256",
          "name": "tokensBet",
          "type": "uint256"
        }
      ],
      "name": "BetPlaced",
      "type": "event"
    },
    {
      "anonymous": false,
      "inputs": [
        {
          "indexed": true,
          "internalType": "address",
          "name": "player",
          "type": "address"
        },
        {
          "indexed": false,
          "internalType": "uint256",
          "name": "availableBalance",
          "type": "uint256"
        },
        {
          "indexed": false,
          "internalType": "uint256",
          "name": "requiredAmount",
          "type": "uint256"
        }
      ],
      "name": "InsufficientBalance",
      "type": "event"
    },
    {
      "anonymous": false,
      "inputs": [
        {
          "indexed": false,
          "internalType": "uint256",
          "name": "requiredAmount",
          "type": "uint256"
        },
        {
          "indexed": false,
          "internalType": "uint256",
          "name": "contractBalance",
          "type": "uint256"
        }
      ],
      "name": "InsufficientContractBalance",
      "type": "event"
    },
    {
      "anonymous": false,
      "inputs": [
        {
          "indexed": false,
          "internalType": "uint256",
          "name": "randomNumber",
          "type": "uint256"
        }
      ],
      "name": "RandomNumberGenerated",
      "type": "event"
    },
    {
      "anonymous": false,
      "inputs": [
        {
          "indexed": true,
          "internalType": "address",
          "name": "player",
          "type": "address"
        },
        {
          "indexed": false,
          "internalType": "string",
          "name": "reason",
          "type": "string"
        }
      ],
      "name": "RouletteError",
      "type": "event"
    },
    {
      "anonymous": false,
      "inputs": [
        {
          "indexed": false,
          "internalType": "uint256",
          "name": "NumberWin",
          "type": "uint256"
        },
        {
          "indexed": false,
          "internalType": "bool",
          "name": "result",
          "type": "bool"
        },
        {
          "indexed": false,
          "internalType": "uint256",
          "name": "tokensEarned",
          "type": "uint256"
        }
      ],
      "name": "RouletteGame",
      "type": "event"
    },
    {
      "anonymous": false,
      "inputs": [
        {
          "indexed": true,
          "internalType": "address",
          "name": "player",
          "type": "address"
        },
        {
          "indexed": false,
          "internalType": "uint256",
          "name": "tokensEarned",
          "type": "uint256"
        },
        {
          "indexed": false,
          "internalType": "string",
          "name": "reason",
          "type": "string"
        }
      ],
      "name": "TransferFailed",
      "type": "event"
    },
    {
      "anonymous": false,
      "inputs": [
        {
          "indexed": true,
          "internalType": "address",
          "name": "player",
          "type": "address"
        },
        {
          "indexed": false,
          "internalType": "uint256",
          "name": "tokensEarned",
          "type": "uint256"
        }
      ],
      "name": "TransferWinnings",
      "type": "event"
    },
    {
      "anonymous": false,
      "inputs": [
        {
          "indexed": false,
          "internalType": "uint256",
          "name": "tokensEarned",
          "type": "uint256"
        }
      ],
      "name": "WinningsCalculated",
      "type": "event"
    },
    {
      "inputs": [],
      "name": "casToken",
      "outputs": [
        {
          "internalType": "contract MintableToken",
          "name": "",
          "type": "address"
        }
      ],
      "stateMutability": "view",
      "type": "function"
    },
    {
      "inputs": [],
      "name": "enabled",
      "outputs": [
        {
          "internalType": "bool",
          "name": "",
          "type": "bool"
        }
      ],
      "stateMutability": "view",
      "type": "function"
    },
    {
      "inputs": [],
      "name": "owner",
      "outputs": [
        {
          "internalType": "address",
          "name": "",
          "type": "address"
        }
      ],
      "stateMutability": "view",
      "type": "function"
    },
    {
      "inputs": [
        {
          "internalType": "enum Roulette.Color",
          "name": "_selectedColor",
          "type": "uint8"
        },
        {
          "internalType": "uint256",
          "name": "_tokensBet",
          "type": "uint256"
        }
      ],
      "name": "playRoulette",
      "outputs": [],
      "stateMutability": "nonpayable",
      "type": "function"
    },
    {
      "inputs": [
        {
          "internalType": "address",
          "name": "_casTokenAddress",
          "type": "address"
        }
      ],
      "name": "setCasTokenAddress",
      "outputs": [],
      "stateMutability": "nonpayable",
      "type": "function"
    },
    {
      "inputs": [
        {
          "internalType": "bool",
          "name": "_enabled",
          "type": "bool"
        }
      ],
      "name": "setEnabled",
      "outputs": [],
      "stateMutability": "nonpayable",
      "type": "function"
    }
  ],
  "bytecode": "0x608060405260018060146101000a81548160ff021916908315150217905550348015610029575f80fd5b503360015f6101000a81548173ffffffffffffffffffffffffffffffffffffffff021916908373ffffffffffffffffffffffffffffffffffffffff160217905550611614806100775f395ff3fe608060405234801561000f575f80fd5b5060043610610060575f3560e01c8063027f5dc414610064578063238dafe014610080578063328d8f721461009e5780636e409a7a146100ba5780638da5cb5b146100d8578063a5bff9c6146100f6575b5f80fd5b61007e60048036038101906100799190610d12565b610112565b005b610088610a53565b6040516100959190610d6a565b60405180910390f35b6100b860048036038101906100b39190610dad565b610a66565b005b6100c2610b12565b6040516100cf9190610e52565b60405180910390f35b6100e0610b35565b6040516100ed9190610e8b565b60405180910390f35b610110600480360381019061010b9190610ece565b610b5a565b005b600160149054906101000a900460ff16610161576040517f08c379a000000000000000000000000000000000000000000000000000000000815260040161015890610f53565b60405180910390fd5b3373ffffffffffffffffffffffffffffffffffffffff167f9f6b4cced64244a64465098f682029975b1614400b96bc6bd12c66808371916683836040516101a9929190610ff3565b60405180910390a25f60028111156101c4576101c3610f71565b5b8260028111156101d7576101d6610f71565b5b108061020657506002808111156101f1576101f0610f71565b5b82600281111561020457610203610f71565b5b115b156102cd573373ffffffffffffffffffffffffffffffffffffffff167f5a256eeb2c2373a158e71ebf2ed2f4b96306e95b208047027168a15b3036acb760405161024f90611064565b60405180910390a27fd25d6b7f2fbc40564b21f40e1d506ff3d5276071da39d3def6b88f6ee8a396595f805f60405161028a939291906110bb565b60405180910390a16040517f08c379a00000000000000000000000000000000000000000000000000000000081526004016102c490611064565b60405180910390fd5b5f8111610396573373ffffffffffffffffffffffffffffffffffffffff167f5a256eeb2c2373a158e71ebf2ed2f4b96306e95b208047027168a15b3036acb760405161031890611160565b60405180910390a27fd25d6b7f2fbc40564b21f40e1d506ff3d5276071da39d3def6b88f6ee8a396595f805f604051610353939291906110bb565b60405180910390a16040517f08c379a000000000000000000000000000000000000000000000000000000000815260040161038d90611160565b60405180910390fd5b5f805f9054906101000a900473ffffffffffffffffffffffffffffffffffffffff1673ffffffffffffffffffffffffffffffffffffffff166370a08231336040518263ffffffff1660e01b81526004016103f09190610e8b565b602060405180830381865afa15801561040b573d5f803e3d5ffd5b505050506040513d601f19601f8201168201806040525081019061042f9190611192565b90508082111561054b573373ffffffffffffffffffffffffffffffffffffffff167fdb42144d928cd19733b9dfeead8bc02ed403845c274e06a6eee0944fb25ca5c482846040516104819291906111bd565b60405180910390a23373ffffffffffffffffffffffffffffffffffffffff167f5a256eeb2c2373a158e71ebf2ed2f4b96306e95b208047027168a15b3036acb76040516104cd9061122e565b60405180910390a27fd25d6b7f2fbc40564b21f40e1d506ff3d5276071da39d3def6b88f6ee8a396595f805f604051610508939291906110bb565b60405180910390a16040517f08c379a00000000000000000000000000000000000000000000000000000000081526004016105429061122e565b60405180910390fd5b5f8054906101000a900473ffffffffffffffffffffffffffffffffffffffff1673ffffffffffffffffffffffffffffffffffffffff1663f83d17913330856040518463ffffffff1660e01b81526004016105a79392919061124c565b5f604051808303815f87803b1580156105be575f80fd5b505af11580156105d0573d5f803e3d5ffd5b505050505f600f42446040516020016105ea9291906112a1565b604051602081830303815290604052805190602001205f1c61060c91906112f9565b90507facb85192b17e57cdd6ffdc2af021cc70c3a2269771b37b82dd36695fec903af58160405161063d9190611329565b60405180910390a15f80600281111561065957610658610f71565b5b85600281111561066c5761066b610f71565b5b14801561067857505f82145b1561069157600e8461068a919061136f565b9050610744565b600160028111156106a5576106a4610f71565b5b8560028111156106b8576106b7610f71565b5b1480156106c6575060018210155b80156106d3575060078211155b156106ec576002846106e5919061136f565b9050610743565b6002808111156106ff576106fe610f71565b5b85600281111561071257610711610f71565b5b148015610720575060088210155b801561072d5750600e8211155b156107425760028461073f919061136f565b90505b5b5b7f17d0bdd137436ab6871ea9761fafda547766fe215009b12b24aeb866629cbbfd816040516107739190611329565b60405180910390a15f80821190508015610a10575f805f9054906101000a900473ffffffffffffffffffffffffffffffffffffffff1673ffffffffffffffffffffffffffffffffffffffff166370a08231306040518263ffffffff1660e01b81526004016107e19190610e8b565b602060405180830381865afa1580156107fc573d5f803e3d5ffd5b505050506040513d601f19601f820116820180604052508101906108209190611192565b905080831115610925577fb7ddd88bc8149dee9da0b902aeff1c6e8b4f366fb96c3bba8a91548ee08d73ce838260405161085b9291906111bd565b60405180910390a13373ffffffffffffffffffffffffffffffffffffffff167f5a256eeb2c2373a158e71ebf2ed2f4b96306e95b208047027168a15b3036acb76040516108a790611420565b60405180910390a27fd25d6b7f2fbc40564b21f40e1d506ff3d5276071da39d3def6b88f6ee8a39659845f806040516108e29392919061143e565b60405180910390a16040517f08c379a000000000000000000000000000000000000000000000000000000000815260040161091c90611420565b60405180910390fd5b5f8054906101000a900473ffffffffffffffffffffffffffffffffffffffff1673ffffffffffffffffffffffffffffffffffffffff1663a9059cbb33856040518363ffffffff1660e01b815260040161097f929190611473565b6020604051808303815f875af115801561099b573d5f803e3d5ffd5b505050506040513d601f19601f820116820180604052508101906109bf91906114ae565b503373ffffffffffffffffffffffffffffffffffffffff167f835331c6ebec60dc538028ed57d9e0f41cea026c4a6e3d105ca0f49535816b5e84604051610a069190611329565b60405180910390a2505b7fd25d6b7f2fbc40564b21f40e1d506ff3d5276071da39d3def6b88f6ee8a39659838284604051610a43939291906114d9565b60405180910390a1505050505050565b600160149054906101000a900460ff1681565b60015f9054906101000a900473ffffffffffffffffffffffffffffffffffffffff1673ffffffffffffffffffffffffffffffffffffffff163373ffffffffffffffffffffffffffffffffffffffff1614610af5576040517f08c379a0000000000000000000000000000000000000000000000000000000008152600401610aec90611558565b60405180910390fd5b80600160146101000a81548160ff02191690831515021790555050565b5f8054906101000a900473ffffffffffffffffffffffffffffffffffffffff1681565b60015f9054906101000a900473ffffffffffffffffffffffffffffffffffffffff1681565b60015f9054906101000a900473ffffffffffffffffffffffffffffffffffffffff1673ffffffffffffffffffffffffffffffffffffffff163373ffffffffffffffffffffffffffffffffffffffff1614610be9576040517f08c379a0000000000000000000000000000000000000000000000000000000008152600401610be090611558565b60405180910390fd5b5f73ffffffffffffffffffffffffffffffffffffffff165f8054906101000a900473ffffffffffffffffffffffffffffffffffffffff1673ffffffffffffffffffffffffffffffffffffffff1614610c76576040517f08c379a0000000000000000000000000000000000000000000000000000000008152600401610c6d906115c0565b60405180910390fd5b805f806101000a81548173ffffffffffffffffffffffffffffffffffffffff021916908373ffffffffffffffffffffffffffffffffffffffff16021790555050565b5f80fd5b60038110610cc8575f80fd5b50565b5f81359050610cd981610cbc565b92915050565b5f819050919050565b610cf181610cdf565b8114610cfb575f80fd5b50565b5f81359050610d0c81610ce8565b92915050565b5f8060408385031215610d2857610d27610cb8565b5b5f610d3585828601610ccb565b9250506020610d4685828601610cfe565b9150509250929050565b5f8115159050919050565b610d6481610d50565b82525050565b5f602082019050610d7d5f830184610d5b565b92915050565b610d8c81610d50565b8114610d96575f80fd5b50565b5f81359050610da781610d83565b92915050565b5f60208284031215610dc257610dc1610cb8565b5b5f610dcf84828501610d99565b91505092915050565b5f73ffffffffffffffffffffffffffffffffffffffff82169050919050565b5f819050919050565b5f610e1a610e15610e1084610dd8565b610df7565b610dd8565b9050919050565b5f610e2b82610e00565b9050919050565b5f610e3c82610e21565b9050919050565b610e4c81610e32565b82525050565b5f602082019050610e655f830184610e43565b92915050565b5f610e7582610dd8565b9050919050565b610e8581610e6b565b82525050565b5f602082019050610e9e5f830184610e7c565b92915050565b610ead81610e6b565b8114610eb7575f80fd5b50565b5f81359050610ec881610ea4565b92915050565b5f60208284031215610ee357610ee2610cb8565b5b5f610ef084828501610eba565b91505092915050565b5f82825260208201905092915050565b7f436f6e74726163742069732064697361626c65640000000000000000000000005f82015250565b5f610f3d601483610ef9565b9150610f4882610f09565b602082019050919050565b5f6020820190508181035f830152610f6a81610f31565b9050919050565b7f4e487b71000000000000000000000000000000000000000000000000000000005f52602160045260245ffd5b60038110610faf57610fae610f71565b5b50565b5f819050610fbf82610f9e565b919050565b5f610fce82610fb2565b9050919050565b610fde81610fc4565b82525050565b610fed81610cdf565b82525050565b5f6040820190506110065f830185610fd5565b6110136020830184610fe4565b9392505050565b7f496e76616c696420636f6c6f722073656c6563746564000000000000000000005f82015250565b5f61104e601683610ef9565b91506110598261101a565b602082019050919050565b5f6020820190508181035f83015261107b81611042565b9050919050565b5f819050919050565b5f6110a56110a061109b84611082565b610df7565b610cdf565b9050919050565b6110b58161108b565b82525050565b5f6060820190506110ce5f8301866110ac565b6110db6020830185610d5b565b6110e860408301846110ac565b949350505050565b7f42657420616d6f756e74206d7573742062652067726561746572207468616e205f8201527f3000000000000000000000000000000000000000000000000000000000000000602082015250565b5f61114a602183610ef9565b9150611155826110f0565b604082019050919050565b5f6020820190508181035f8301526111778161113e565b9050919050565b5f8151905061118c81610ce8565b92915050565b5f602082840312156111a7576111a6610cb8565b5b5f6111b48482850161117e565b91505092915050565b5f6040820190506111d05f830185610fe4565b6111dd6020830184610fe4565b9392505050565b7f496e73756666696369656e7420746f6b656e7320666f722062657400000000005f82015250565b5f611218601b83610ef9565b9150611223826111e4565b602082019050919050565b5f6020820190508181035f8301526112458161120c565b9050919050565b5f60608201905061125f5f830186610e7c565b61126c6020830185610e7c565b6112796040830184610fe4565b949350505050565b5f819050919050565b61129b61129682610cdf565b611281565b82525050565b5f6112ac828561128a565b6020820191506112bc828461128a565b6020820191508190509392505050565b7f4e487b71000000000000000000000000000000000000000000000000000000005f52601260045260245ffd5b5f61130382610cdf565b915061130e83610cdf565b92508261131e5761131d6112cc565b5b828206905092915050565b5f60208201905061133c5f830184610fe4565b92915050565b7f4e487b71000000000000000000000000000000000000000000000000000000005f52601160045260245ffd5b5f61137982610cdf565b915061138483610cdf565b925082820261139281610cdf565b915082820484148315176113a9576113a8611342565b5b5092915050565b7f436f6e74726163742062616c616e636520696e73756666696369656e7420746f5f8201527f207061792077696e6e696e677300000000000000000000000000000000000000602082015250565b5f61140a602d83610ef9565b9150611415826113b0565b604082019050919050565b5f6020820190508181035f830152611437816113fe565b9050919050565b5f6060820190506114515f830186610fe4565b61145e6020830185610d5b565b61146b60408301846110ac565b949350505050565b5f6040820190506114865f830185610e7c565b6114936020830184610fe4565b9392505050565b5f815190506114a881610d83565b92915050565b5f602082840312156114c3576114c2610cb8565b5b5f6114d08482850161149a565b91505092915050565b5f6060820190506114ec5f830186610fe4565b6114f96020830185610d5b565b6115066040830184610fe4565b949350505050565b7f4e6f742074686520636f6e7472616374206f776e6572000000000000000000005f82015250565b5f611542601683610ef9565b915061154d8261150e565b602082019050919050565b5f6020820190508181035f83015261156f81611536565b9050919050565b7f43415320546f6b656e206164647265737320616c7265616479207365740000005f82015250565b5f6115aa601d83610ef9565b91506115b582611576565b602082019050919050565b5f6020820190508181035f8301526115d78161159e565b905091905056fea26469706673582212207cbca61b25bfd8b1d47ef06550b57ab247ed010ffe559429709bc45d541079ce64736f6c63430008140033",
  "linkReferences": {},
  "deployedLinkReferences": {}
}